{
  "contractName": "leak0x",
  "abi": [
    {
      "constant": true,
      "inputs": [
        {
          "name": "",
          "type": "address"
        },
        {
          "name": "",
          "type": "uint256"
        }
      ],
      "name": "whistleblowerLeakIds",
      "outputs": [
        {
          "name": "",
          "type": "uint256"
        }
      ],
      "payable": false,
      "stateMutability": "view",
      "type": "function",
      "signature": "0x46f97053"
    },
    {
      "constant": true,
      "inputs": [],
      "name": "leakCount",
      "outputs": [
        {
          "name": "",
          "type": "uint256"
        }
      ],
      "payable": false,
      "stateMutability": "view",
      "type": "function",
      "signature": "0x52060038"
    },
    {
      "constant": true,
      "inputs": [
        {
          "name": "",
          "type": "address"
        }
      ],
      "name": "addressToWhistleBlower",
      "outputs": [
        {
          "name": "account",
          "type": "address"
        },
        {
          "name": "pseudonym",
          "type": "string"
        },
        {
          "name": "reputation",
          "type": "int256"
        },
        {
          "name": "leakCount",
          "type": "uint256"
        },
        {
          "name": "rank",
          "type": "uint256"
        },
        {
          "name": "profilePictureIpfsHash",
          "type": "string"
        },
        {
          "name": "mimeType",
          "type": "string"
        }
      ],
      "payable": false,
      "stateMutability": "view",
      "type": "function",
      "signature": "0x94ac32df"
    },
    {
      "constant": true,
      "inputs": [
        {
          "name": "",
          "type": "uint256"
        }
      ],
      "name": "leaks",
      "outputs": [
        {
          "name": "account",
          "type": "address"
        },
        {
          "name": "ipfsHash",
          "type": "string"
        },
        {
          "name": "timestamp",
          "type": "uint256"
        },
        {
          "name": "title",
          "type": "string"
        },
        {
          "name": "score",
          "type": "uint256"
        },
        {
          "name": "mimeType",
          "type": "string"
        }
      ],
      "payable": false,
      "stateMutability": "view",
      "type": "function",
      "signature": "0x9bf9d397"
    },
    {
      "constant": true,
      "inputs": [
        {
          "name": "",
          "type": "uint256"
        }
      ],
      "name": "leakToWhistleblower",
      "outputs": [
        {
          "name": "",
          "type": "address"
        }
      ],
      "payable": false,
      "stateMutability": "view",
      "type": "function",
      "signature": "0xd043a2bf"
    },
    {
      "constant": true,
      "inputs": [
        {
          "name": "",
          "type": "uint256"
        }
      ],
      "name": "whistleBlowers",
      "outputs": [
        {
          "name": "account",
          "type": "address"
        },
        {
          "name": "pseudonym",
          "type": "string"
        },
        {
          "name": "reputation",
          "type": "int256"
        },
        {
          "name": "leakCount",
          "type": "uint256"
        },
        {
          "name": "rank",
          "type": "uint256"
        },
        {
          "name": "profilePictureIpfsHash",
          "type": "string"
        },
        {
          "name": "mimeType",
          "type": "string"
        }
      ],
      "payable": false,
      "stateMutability": "view",
      "type": "function",
      "signature": "0xd33610d6"
    },
    {
      "inputs": [],
      "payable": false,
      "stateMutability": "nonpayable",
      "type": "constructor",
      "signature": "constructor"
    },
    {
      "constant": false,
      "inputs": [
        {
          "name": "_pseudonym",
          "type": "string"
        },
        {
          "name": "_ipfsHash",
          "type": "string"
        },
        {
          "name": "_mimeType",
          "type": "string"
        }
      ],
      "name": "registerWhistleBlower",
      "outputs": [],
      "payable": false,
      "stateMutability": "nonpayable",
      "type": "function",
      "signature": "0xa6e3dbc5"
    },
    {
      "constant": false,
      "inputs": [
        {
          "name": "_ipfsHash",
          "type": "string"
        },
        {
          "name": "_title",
          "type": "string"
        },
        {
          "name": "_mimeType",
          "type": "string"
        }
      ],
      "name": "createLeak",
      "outputs": [],
      "payable": false,
      "stateMutability": "nonpayable",
      "type": "function",
      "signature": "0xafec017a"
    },
    {
      "constant": true,
      "inputs": [
        {
          "name": "_ipfsHash",
          "type": "string"
        }
      ],
      "name": "getLeak",
      "outputs": [
        {
          "name": "",
          "type": "address"
        },
        {
          "name": "",
          "type": "string"
        },
        {
          "name": "",
          "type": "uint256"
        },
        {
          "name": "",
          "type": "string"
        },
        {
          "name": "",
          "type": "string"
        },
        {
          "name": "",
          "type": "uint256"
        }
      ],
      "payable": false,
      "stateMutability": "view",
      "type": "function",
      "signature": "0xcbc7d932"
    },
    {
      "constant": true,
      "inputs": [
        {
          "name": "_leakId",
          "type": "uint256"
        }
      ],
      "name": "getLeakFromLeakId",
      "outputs": [
        {
          "name": "",
          "type": "address"
        },
        {
          "name": "",
          "type": "string"
        },
        {
          "name": "",
          "type": "uint256"
        },
        {
          "name": "",
          "type": "string"
        },
        {
          "name": "",
          "type": "string"
        },
        {
          "name": "",
          "type": "uint256"
        }
      ],
      "payable": false,
      "stateMutability": "view",
      "type": "function",
      "signature": "0x26c4135b"
    },
    {
      "constant": true,
      "inputs": [
        {
          "name": "_whistleblowerID",
          "type": "address"
        }
      ],
      "name": "getWhistleblowerLeakIds",
      "outputs": [
        {
          "name": "",
          "type": "uint256[]"
        }
      ],
      "payable": false,
      "stateMutability": "view",
      "type": "function",
      "signature": "0x8b945b67"
    }
  ],
  "bytecode": "0x608060405234801561001057600080fd5b506000600281905550612b41806100286000396000f3fe6080604052600436106100af576000357c0100000000000000000000000000000000000000000000000000000000900463ffffffff16806326c4135b146100b457806346f970531461028157806352060038146102f05780638b945b671461031b57806394ac32df146103c15780639bf9d397146105ab578063a6e3dbc514610778578063afec017a1461096e578063cbc7d93214610b64578063d043a2bf14610dbe578063d33610d614610e39575b600080fd5b3480156100c057600080fd5b506100ed600480360360208110156100d757600080fd5b810190808035906020019092919050505061100d565b604051808773ffffffffffffffffffffffffffffffffffffffff1673ffffffffffffffffffffffffffffffffffffffff168152602001806020018681526020018060200180602001858152602001848103845289818151815260200191508051906020019080838360005b83811015610173578082015181840152602081019050610158565b50505050905090810190601f1680156101a05780820380516001836020036101000a031916815260200191505b50848103835287818151815260200191508051906020019080838360005b838110156101d95780820151818401526020810190506101be565b50505050905090810190601f1680156102065780820380516001836020036101000a031916815260200191505b50848103825286818151815260200191508051906020019080838360005b8381101561023f578082015181840152602081019050610224565b50505050905090810190601f16801561026c5780820380516001836020036101000a031916815260200191505b50995050505050505050505060405180910390f35b34801561028d57600080fd5b506102da600480360360408110156102a457600080fd5b81019080803573ffffffffffffffffffffffffffffffffffffffff169060200190929190803590602001909291905050506112e3565b6040518082815260200191505060405180910390f35b3480156102fc57600080fd5b50610305611313565b6040518082815260200191505060405180910390f35b34801561032757600080fd5b5061036a6004803603602081101561033e57600080fd5b81019080803573ffffffffffffffffffffffffffffffffffffffff169060200190929190505050611319565b6040518080602001828103825283818151815260200191508051906020019060200280838360005b838110156103ad578082015181840152602081019050610392565b505050509050019250505060405180910390f35b3480156103cd57600080fd5b50610410600480360360208110156103e457600080fd5b81019080803573ffffffffffffffffffffffffffffffffffffffff1690602001909291905050506113b0565b604051808873ffffffffffffffffffffffffffffffffffffffff1673ffffffffffffffffffffffffffffffffffffffff16815260200180602001878152602001868152602001858152602001806020018060200184810384528a818151815260200191508051906020019080838360005b8381101561049c578082015181840152602081019050610481565b50505050905090810190601f1680156104c95780820380516001836020036101000a031916815260200191505b50848103835286818151815260200191508051906020019080838360005b838110156105025780820151818401526020810190506104e7565b50505050905090810190601f16801561052f5780820380516001836020036101000a031916815260200191505b50848103825285818151815260200191508051906020019080838360005b8381101561056857808201518184015260208101905061054d565b50505050905090810190601f1680156105955780820380516001836020036101000a031916815260200191505b509a505050505050505050505060405180910390f35b3480156105b757600080fd5b506105e4600480360360208110156105ce57600080fd5b81019080803590602001909291905050506115da565b604051808773ffffffffffffffffffffffffffffffffffffffff1673ffffffffffffffffffffffffffffffffffffffff168152602001806020018681526020018060200185815260200180602001848103845289818151815260200191508051906020019080838360005b8381101561066a57808201518184015260208101905061064f565b50505050905090810190601f1680156106975780820380516001836020036101000a031916815260200191505b50848103835287818151815260200191508051906020019080838360005b838110156106d05780820151818401526020810190506106b5565b50505050905090810190601f1680156106fd5780820380516001836020036101000a031916815260200191505b50848103825285818151815260200191508051906020019080838360005b8381101561073657808201518184015260208101905061071b565b50505050905090810190601f1680156107635780820380516001836020036101000a031916815260200191505b50995050505050505050505060405180910390f35b34801561078457600080fd5b5061096c6004803603606081101561079b57600080fd5b81019080803590602001906401000000008111156107b857600080fd5b8201836020820111156107ca57600080fd5b803590602001918460018302840111640100000000831117156107ec57600080fd5b91908080601f016020809104026020016040519081016040528093929190818152602001838380828437600081840152601f19601f8201169050808301925050505050505091929192908035906020019064010000000081111561084f57600080fd5b82018360208201111561086157600080fd5b8035906020019184600183028401116401000000008311171561088357600080fd5b91908080601f016020809104026020016040519081016040528093929190818152602001838380828437600081840152601f19601f820116905080830192505050505050509192919290803590602001906401000000008111156108e657600080fd5b8201836020820111156108f857600080fd5b8035906020019184600183028401116401000000008311171561091a57600080fd5b91908080601f016020809104026020016040519081016040528093929190818152602001838380828437600081840152601f19601f82011690508083019250505050505050919291929050505061180d565b005b34801561097a57600080fd5b50610b626004803603606081101561099157600080fd5b81019080803590602001906401000000008111156109ae57600080fd5b8201836020820111156109c057600080fd5b803590602001918460018302840111640100000000831117156109e257600080fd5b91908080601f016020809104026020016040519081016040528093929190818152602001838380828437600081840152601f19601f82011690508083019250505050505050919291929080359060200190640100000000811115610a4557600080fd5b820183602082011115610a5757600080fd5b80359060200191846001830284011164010000000083111715610a7957600080fd5b91908080601f016020809104026020016040519081016040528093929190818152602001838380828437600081840152601f19601f82011690508083019250505050505050919291929080359060200190640100000000811115610adc57600080fd5b820183602082011115610aee57600080fd5b80359060200191846001830284011164010000000083111715610b1057600080fd5b91908080601f016020809104026020016040519081016040528093929190818152602001838380828437600081840152601f19601f820116905080830192505050505050509192919290505050611f78565b005b348015610b7057600080fd5b50610c2a60048036036020811015610b8757600080fd5b8101908080359060200190640100000000811115610ba457600080fd5b820183602082011115610bb657600080fd5b80359060200191846001830284011164010000000083111715610bd857600080fd5b91908080601f016020809104026020016040519081016040528093929190818152602001838380828437600081840152601f19601f820116905080830192505050505050509192919290505050612287565b604051808773ffffffffffffffffffffffffffffffffffffffff1673ffffffffffffffffffffffffffffffffffffffff168152602001806020018681526020018060200180602001858152602001848103845289818151815260200191508051906020019080838360005b83811015610cb0578082015181840152602081019050610c95565b50505050905090810190601f168015610cdd5780820380516001836020036101000a031916815260200191505b50848103835287818151815260200191508051906020019080838360005b83811015610d16578082015181840152602081019050610cfb565b50505050905090810190601f168015610d435780820380516001836020036101000a031916815260200191505b50848103825286818151815260200191508051906020019080838360005b83811015610d7c578082015181840152602081019050610d61565b50505050905090810190601f168015610da95780820380516001836020036101000a031916815260200191505b50995050505050505050505060405180910390f35b348015610dca57600080fd5b50610df760048036036020811015610de157600080fd5b81019080803590602001909291905050506126f1565b604051808273ffffffffffffffffffffffffffffffffffffffff1673ffffffffffffffffffffffffffffffffffffffff16815260200191505060405180910390f35b348015610e4557600080fd5b50610e7260048036036020811015610e5c57600080fd5b8101908080359060200190929190505050612724565b604051808873ffffffffffffffffffffffffffffffffffffffff1673ffffffffffffffffffffffffffffffffffffffff16815260200180602001878152602001868152602001858152602001806020018060200184810384528a818151815260200191508051906020019080838360005b83811015610efe578082015181840152602081019050610ee3565b50505050905090810190601f168015610f2b5780820380516001836020036101000a031916815260200191505b50848103835286818151815260200191508051906020019080838360005b83811015610f64578082015181840152602081019050610f49565b50505050905090810190601f168015610f915780820380516001836020036101000a031916815260200191505b50848103825285818151815260200191508051906020019080838360005b83811015610fca578082015181840152602081019050610faf565b50505050905090810190601f168015610ff75780820380516001836020036101000a031916815260200191505b509a505050505050505050505060405180910390f35b6000606060006060806000808781548110151561102657fe5b906000526020600020906006020160000160009054906101000a900473ffffffffffffffffffffffffffffffffffffffff1660008881548110151561106757fe5b906000526020600020906006020160010160008981548110151561108757fe5b90600052602060002090600602016002015460008a8154811015156110a857fe5b906000526020600020906006020160030160008b8154811015156110c857fe5b906000526020600020906006020160050160008c8154811015156110e857fe5b906000526020600020906006020160040154848054600181600116156101000203166002900480601f01602080910402602001604051908101604052809291908181526020018280546001816001161561010002031660029004801561118f5780601f106111645761010080835404028352916020019161118f565b820191906000526020600020905b81548152906001019060200180831161117257829003601f168201915b50505050509450828054600181600116156101000203166002900480601f01602080910402602001604051908101604052809291908181526020018280546001816001161561010002031660029004801561122b5780601f106112005761010080835404028352916020019161122b565b820191906000526020600020905b81548152906001019060200180831161120e57829003601f168201915b50505050509250818054600181600116156101000203166002900480601f0160208091040260200160405190810160405280929190818152602001828054600181600116156101000203166002900480156112c75780601f1061129c576101008083540402835291602001916112c7565b820191906000526020600020905b8154815290600101906020018083116112aa57829003601f168201915b5050505050915095509550955095509550955091939550919395565b6005602052816000526040600020818154811015156112fe57fe5b90600052602060002001600091509150505481565b60025481565b6060600560008373ffffffffffffffffffffffffffffffffffffffff1673ffffffffffffffffffffffffffffffffffffffff1681526020019081526020016000208054806020026020016040519081016040528092919081815260200182805480156113a457602002820191906000526020600020905b815481526020019060010190808311611390575b50505050509050919050565b60066020528060005260406000206000915090508060000160009054906101000a900473ffffffffffffffffffffffffffffffffffffffff1690806001018054600181600116156101000203166002900480601f0160208091040260200160405190810160405280929190818152602001828054600181600116156101000203166002900480156114825780601f1061145757610100808354040283529160200191611482565b820191906000526020600020905b81548152906001019060200180831161146557829003601f168201915b505050505090806002015490806003015490806004015490806005018054600181600116156101000203166002900480601f0160208091040260200160405190810160405280929190818152602001828054600181600116156101000203166002900480156115325780601f1061150757610100808354040283529160200191611532565b820191906000526020600020905b81548152906001019060200180831161151557829003601f168201915b505050505090806006018054600181600116156101000203166002900480601f0160208091040260200160405190810160405280929190818152602001828054600181600116156101000203166002900480156115d05780601f106115a5576101008083540402835291602001916115d0565b820191906000526020600020905b8154815290600101906020018083116115b357829003601f168201915b5050505050905087565b6000818154811015156115e957fe5b90600052602060002090600602016000915090508060000160009054906101000a900473ffffffffffffffffffffffffffffffffffffffff1690806001018054600181600116156101000203166002900480601f0160208091040260200160405190810160405280929190818152602001828054600181600116156101000203166002900480156116bb5780601f10611690576101008083540402835291602001916116bb565b820191906000526020600020905b81548152906001019060200180831161169e57829003601f168201915b505050505090806002015490806003018054600181600116156101000203166002900480601f01602080910402602001604051908101604052809291908181526020018280546001816001161561010002031660029004801561175f5780601f106117345761010080835404028352916020019161175f565b820191906000526020600020905b81548152906001019060200180831161174257829003601f168201915b505050505090806004015490806005018054600181600116156101000203166002900480601f0160208091040260200160405190810160405280929190818152602001828054600181600116156101000203166002900480156118035780601f106117d857610100808354040283529160200191611803565b820191906000526020600020905b8154815290600101906020018083116117e657829003601f168201915b5050505050905086565b82600081511115156118f9576040517f08c379a00000000000000000000000000000000000000000000000000000000081526004018080602001828103825260658152602001807f50736575646f6e796d20686173206e6f74206265656e2072657175697265642c81526020017f207468657265666f72652069742063616e27742062652076657269666965642081526020017f77686574686572206f72206e6f74207468652050736575646f6e796d2069732081526020017f74616b656e00000000000000000000000000000000000000000000000000000081525060800191505060405180910390fd5b600073ffffffffffffffffffffffffffffffffffffffff166007826040518082805190602001908083835b6020831015156119495780518252602082019150602081019050602083039250611924565b6001836020036101000a038019825116818451168082178552505050505050905001915050908152602001604051809103902060009054906101000a900473ffffffffffffffffffffffffffffffffffffffff1673ffffffffffffffffffffffffffffffffffffffff16141515611a28576040517f08c379a000000000000000000000000000000000000000000000000000000000815260040180806020018281038252601a8152602001807f50736575646f6e796d20697320616c72656164792074616b656e00000000000081525060200191505060405180910390fd5b60008451111515611ac7576040517f08c379a00000000000000000000000000000000000000000000000000000000081526004018080602001828103825260348152602001807f50736575646f6e796d20726571756972656420666f722072656769737472617481526020017f696f6e20627574206e6f742070726f766964656400000000000000000000000081525060400191505060405180910390fd5b3373ffffffffffffffffffffffffffffffffffffffff16600660003373ffffffffffffffffffffffffffffffffffffffff1673ffffffffffffffffffffffffffffffffffffffff16815260200190815260200160002060000160009054906101000a900473ffffffffffffffffffffffffffffffffffffffff1673ffffffffffffffffffffffffffffffffffffffff1614151515611bf3576040517f08c379a00000000000000000000000000000000000000000000000000000000081526004018080602001828103825260368152602001807f57686973746c65426c6f7765722077697468207468697320616464726573732081526020017f68617320616c726561647920726567697374657265640000000000000000000081525060400191505060405180910390fd5b606060206040519081016040528060008152509050600084511115611c16578390505b606060206040519081016040528060008152509050600084511115611c39578390505b60006001805490509050600160e0604051908101604052803373ffffffffffffffffffffffffffffffffffffffff1681526020018981526020016000815260200160008152602001838152602001858152602001848152509080600181540180825580915050906001820390600052602060002090600702016000909192909190915060008201518160000160006101000a81548173ffffffffffffffffffffffffffffffffffffffff021916908373ffffffffffffffffffffffffffffffffffffffff1602179055506020820151816001019080519060200190611d1f929190612a70565b5060408201518160020155606082015181600301556080820151816004015560a0820151816005019080519060200190611d5a929190612a70565b5060c0820151816006019080519060200190611d77929190612a70565b5050505060e0604051908101604052803373ffffffffffffffffffffffffffffffffffffffff168152602001888152602001600081526020016000815260200182815260200184815260200183815250600660003373ffffffffffffffffffffffffffffffffffffffff1673ffffffffffffffffffffffffffffffffffffffff16815260200190815260200160002060008201518160000160006101000a81548173ffffffffffffffffffffffffffffffffffffffff021916908373ffffffffffffffffffffffffffffffffffffffff1602179055506020820151816001019080519060200190611e69929190612a70565b5060408201518160020155606082015181600301556080820151816004015560a0820151816005019080519060200190611ea4929190612a70565b5060c0820151816006019080519060200190611ec1929190612a70565b50905050336007886040518082805190602001908083835b602083101515611efe5780518252602082019150602081019050602083039250611ed9565b6001836020036101000a038019825116818451168082178552505050505050905001915050908152602001604051809103902060006101000a81548173ffffffffffffffffffffffffffffffffffffffff021916908373ffffffffffffffffffffffffffffffffffffffff16021790555050505050505050565b60008351111515612017576040517f08c379a00000000000000000000000000000000000000000000000000000000081526004018080602001828103825260258152602001807f495046532068617368206e6f742070726f766964656420746f2063726561746581526020017f4c65616b2e00000000000000000000000000000000000000000000000000000081525060400191505060405180910390fd5b60006001600060c0604051908101604052803373ffffffffffffffffffffffffffffffffffffffff16815260200187815260200142815260200186815260200160008152602001858152509080600181540180825580915050906001820390600052602060002090600602016000909192909190915060008201518160000160006101000a81548173ffffffffffffffffffffffffffffffffffffffff021916908373ffffffffffffffffffffffffffffffffffffffff16021790555060208201518160010190805190602001906120f0929190612a70565b50604082015181600201556060820151816003019080519060200190612117929190612a70565b506080820151816004015560a082015181600501908051906020019061213e929190612a70565b505050039050336003600083815260200190815260200160002060006101000a81548173ffffffffffffffffffffffffffffffffffffffff021916908373ffffffffffffffffffffffffffffffffffffffff160217905550600560003373ffffffffffffffffffffffffffffffffffffffff1673ffffffffffffffffffffffffffffffffffffffff168152602001908152602001600020819080600181540180825580915050906001820390600052602060002001600090919290919091505550806004856040518082805190602001908083835b6020831015156122385780518252602082019150602081019050602083039250612213565b6001836020036101000a03801982511681845116808217855250505050505090500191505090815260200160405180910390208190555060026000815480929190600101919050555050505050565b60006060600060608060008660008151111515612332576040517f08c379a00000000000000000000000000000000000000000000000000000000081526004018080602001828103825260248152602001807f495046532068617368206e6f742070726f766964656420746f2069734e65774c81526020017f65616b2e0000000000000000000000000000000000000000000000000000000081525060400191505060405180910390fd5b60006004826040518082805190602001908083835b60208310151561236c5780518252602082019150602081019050602083039250612347565b6001836020036101000a03801982511681845116808217855250505050505090500191505090815260200160405180910390205410151515612416576040517f08c379a000000000000000000000000000000000000000000000000000000000815260040180806020018281038252600f8152602001807f4c65616b206973206e6f74206e6577000000000000000000000000000000000081525060200191505060405180910390fd5b60006124218961295d565b905060008181548110151561243257fe5b906000526020600020906006020160000160009054906101000a900473ffffffffffffffffffffffffffffffffffffffff1660008281548110151561247357fe5b906000526020600020906006020160010160008381548110151561249357fe5b9060005260206000209060060201600201546000848154811015156124b457fe5b90600052602060002090600602016003016000858154811015156124d457fe5b90600052602060002090600602016005016000868154811015156124f457fe5b906000526020600020906006020160040154848054600181600116156101000203166002900480601f01602080910402602001604051908101604052809291908181526020018280546001816001161561010002031660029004801561259b5780601f106125705761010080835404028352916020019161259b565b820191906000526020600020905b81548152906001019060200180831161257e57829003601f168201915b50505050509450828054600181600116156101000203166002900480601f0160208091040260200160405190810160405280929190818152602001828054600181600116156101000203166002900480156126375780601f1061260c57610100808354040283529160200191612637565b820191906000526020600020905b81548152906001019060200180831161261a57829003601f168201915b50505050509250818054600181600116156101000203166002900480601f0160208091040260200160405190810160405280929190818152602001828054600181600116156101000203166002900480156126d35780601f106126a8576101008083540402835291602001916126d3565b820191906000526020600020905b8154815290600101906020018083116126b657829003601f168201915b50505050509150975097509750975097509750505091939550919395565b60036020528060005260406000206000915054906101000a900473ffffffffffffffffffffffffffffffffffffffff1681565b60018181548110151561273357fe5b90600052602060002090600702016000915090508060000160009054906101000a900473ffffffffffffffffffffffffffffffffffffffff1690806001018054600181600116156101000203166002900480601f0160208091040260200160405190810160405280929190818152602001828054600181600116156101000203166002900480156128055780601f106127da57610100808354040283529160200191612805565b820191906000526020600020905b8154815290600101906020018083116127e857829003601f168201915b505050505090806002015490806003015490806004015490806005018054600181600116156101000203166002900480601f0160208091040260200160405190810160405280929190818152602001828054600181600116156101000203166002900480156128b55780601f1061288a576101008083540402835291602001916128b5565b820191906000526020600020905b81548152906001019060200180831161289857829003601f168201915b505050505090806006018054600181600116156101000203166002900480601f0160208091040260200160405190810160405280929190818152602001828054600181600116156101000203166002900480156129535780601f1061292857610100808354040283529160200191612953565b820191906000526020600020905b81548152906001019060200180831161293657829003601f168201915b5050505050905087565b60008082511115156129fd576040517f08c379a00000000000000000000000000000000000000000000000000000000081526004018080602001828103825260308152602001807f495046532068617368206e6f742070726f766964656420746f206765744c656181526020017f6b496446726f6d49706673486173682e0000000000000000000000000000000081525060400191505060405180910390fd5b6004826040518082805190602001908083835b602083101515612a355780518252602082019150602081019050602083039250612a10565b6001836020036101000a0380198251168184511680821785525050505050509050019150509081526020016040518091039020549050919050565b828054600181600116156101000203166002900490600052602060002090601f016020900481019282601f10612ab157805160ff1916838001178555612adf565b82800160010185558215612adf579182015b82811115612ade578251825591602001919060010190612ac3565b5b509050612aec9190612af0565b5090565b612b1291905b80821115612b0e576000816000905550600101612af6565b5090565b9056fea165627a7a723058207acbb4ca05e1dd6b63b490a72a80407df1cb93fed7f1bbc87415d9e25da8af140029",
  "source": "pragma solidity >=0.5.0 <0.6.0;\n\ncontract leak0x {\n    \n    constructor() public {\n        leakCount = 0;\n    }\n    \n    struct Leak {\n        address account;\n        string ipfsHash;\n        uint256 timestamp;\n        string title;\n        uint256 score;\n        string mimeType;\n    }\n    \n    struct WhistleBlower {\n        address account;\n        string pseudonym;\n        int256 reputation;\n        uint256 leakCount;\n        uint256 rank;\n        string profilePictureIpfsHash;\n        string mimeType;\n    }\n    \n    Leak[] public leaks;\n    WhistleBlower[] public whistleBlowers;\n    uint256 public leakCount;\n    \n    mapping (uint256 => address) public leakToWhistleblower;\n    mapping (string => uint256) ipfsHashToLeakId;\n    mapping (address => uint256[]) public whistleblowerLeakIds;\n    mapping (address => WhistleBlower) public addressToWhistleBlower;\n    mapping (string => address) pseudonymToWhistleBlowerAddress;\n    \n    function registerWhistleBlower(string memory _pseudonym, string memory _ipfsHash, string memory _mimeType) public isNewPseudonym(_pseudonym) {\n        require(\n            (bytes(_pseudonym).length > 0),\n            \"Pseudonym required for registration but not provided\"\n        );\n        require(\n            (addressToWhistleBlower[msg.sender].account != msg.sender),\n            \"WhistleBlower with this address has already registered\"\n        );\n        string memory profilePictureIpfsHash = \"\";\n        if(bytes(_ipfsHash).length > 0) {\n            profilePictureIpfsHash = _ipfsHash;\n        }\n        string memory profilePictureMimeType = \"\";\n        if(bytes(_mimeType).length > 0) {\n            profilePictureMimeType = _mimeType;\n        }\n        uint256 whistleBlowerCount = whistleBlowers.length;\n        whistleBlowers.push(WhistleBlower(msg.sender, _pseudonym, 0, 0, whistleBlowerCount, profilePictureIpfsHash, profilePictureMimeType));\n        addressToWhistleBlower[msg.sender] = WhistleBlower(msg.sender, _pseudonym, 0, 0, whistleBlowerCount, profilePictureIpfsHash, profilePictureMimeType);\n        pseudonymToWhistleBlowerAddress[_pseudonym] = msg.sender;\n    }\n    \n    function createLeak(string memory _ipfsHash, string memory _title, string memory _mimeType) public {\n        require(\n            (bytes(_ipfsHash).length > 0),\n            \"IPFS hash not provided to createLeak.\"\n        );\n        uint256 id = leaks.push(Leak(msg.sender, _ipfsHash, now, _title, 0, _mimeType)) - 1;\n        leakToWhistleblower[id] = msg.sender;\n        whistleblowerLeakIds[msg.sender].push(id);\n        ipfsHashToLeakId[_ipfsHash] = id;\n        leakCount++;\n    }\n    \n    function getLeak(string memory _ipfsHash) public view isNewLeak(_ipfsHash) returns(address, string memory, uint256, string memory, string memory, uint256) {\n        // require(\n        //     bytes(_ipfsHash).length > 0,\n        //     \"IPFS hash not provided to getLeak.\"\n        // );\n        // require(\n        //     doesLeakExist(_ipfsHash) == true,\n        //     \"IPFS hash does not exist as a leak\"\n        // );\n        uint256 leakId = getLeakIdFromIpfsHash(_ipfsHash);\n        return (leaks[leakId].account,\n        leaks[leakId].ipfsHash,\n        leaks[leakId].timestamp,\n        leaks[leakId].title,\n        leaks[leakId].mimeType,\n        leaks[leakId].score);\n    }\n    \n    function getLeakIdFromIpfsHash(string memory _ipfsHash) private view returns(uint256) {\n        require(\n            bytes(_ipfsHash).length > 0,\n            \"IPFS hash not provided to getLeakIdFromIpfsHash.\"\n        );\n        return ipfsHashToLeakId[_ipfsHash];\n    }\n\n    function getLeakFromLeakId(uint256 _leakId) public view returns(address, string memory, uint256, string memory, string memory, uint256) {\n        return (leaks[_leakId].account,\n            leaks[_leakId].ipfsHash,\n            leaks[_leakId].timestamp,\n            leaks[_leakId].title,\n            leaks[_leakId].mimeType,\n            leaks[_leakId].score);\n    }\n    \n    modifier isNewLeak(string memory _ipfsHash) {\n        require(\n            bytes(_ipfsHash).length > 0,\n            \"IPFS hash not provided to isNewLeak.\"\n        );\n        require(\n            ipfsHashToLeakId[_ipfsHash] >= 0,\n            \"Leak is not new\"\n        );\n        _;\n    }\n    \n    modifier isNewPseudonym(string memory _pseudonym) {\n        require(\n            (bytes(_pseudonym).length > 0),\n            \"Pseudonym has not been required, therefore it can't be verified whether or not the Pseudonym is taken\"\n        );\n        require(\n            (pseudonymToWhistleBlowerAddress[_pseudonym] == 0x0000000000000000000000000000000000000000),\n            \"Pseudonym is already taken\"\n        );\n        _;\n    }   \n    \n    function getWhistleblowerLeakIds(address _whistleblowerID) public view returns (uint256[] memory) {\n        return (whistleblowerLeakIds[_whistleblowerID]);\n    }\n    \n}",
  "sourcePath": "/Users/jay.welsh/ETHCapeTown/leak0x/contracts/leak0x.sol",
  "compiler": {
    "name": "solc",
    "version": "0.5.0+commit.1d4f565a.Emscripten.clang"
  },
  "schemaVersion": "3.0.1",
  "updatedAt": "2019-04-28T12:33:38.882Z",
  "devdoc": {
    "methods": {}
  },
  "userdoc": {
    "methods": {}
  }
}